:020000040000fa
:080000000001040000000000f3
:020000040000fa
:1000080004220000082200000c2200001022000038
:100018001422000000220000182200000022000024
:100028001c2200002022000024220000aa02000056
:10003800282200002c220000302200003422000078
:10004800382200003c220000402200004422000028
:10005800482200004c2200005022000054220000d8
:10006800582200005c220000602200006422000088
:100078006822000000220000002200000022000088
:100088006c22000070220000002200000022000004
:100098000022000074220000782200007c22000068
:1000a80080220000842200000022000000220000bc
:1000b800882200008c22000000220000002200009c
:1000c80000220000902200009422000098220000e4
:1000d8009c220000a0220000a422000000220000b0
:1000e80000220000a8220000ac220000002200002c
:1000f80000220000b0220000b4220000002200000c
:100108000022000000220000b8220000bc220000eb
:10011800c0220000c4220000c8220000cc22000037
:10012800d0220000d4220000d8220000dc220000e7
:10013800002200000022000000220000002200002f
:10014800e02200000022000000220000002200003f
:1001580000220000e422000000220000002200002b
:1001680000220000002200000022000000220000ff
:10017800e8220000ec22000000220000002200001b
:100188000022000000220000f0220000f4220000fb
:100198000022000000220000f8220000fc220000db
:1001a80000230000042300000022000000220000b9
:1001b80000220000082300000c2300000022000099
:1001c800002200000022000010230000002200008e
:1001d80014230000182300001c2300000022000044
:1001e800002200000022000000220000002200007f
:0801f80000220000202300009a
:020000040000fa
:100200004fe320000e7f24000e0188000000000054
:10021000000020000000e000020032000001200089
:100220002002880014000700e70007000000e0003b
:1002300003003a00a0332100010020000200370033
:100240000000200001002000810f7000010032003a
:1002500014000700000020000000e000020032004f
:100260000000020000000000e01702000000000093
:100270000040da000000fe004440a900e004200035
:100280000000e00003003200002020009001880000
:100290004440a800000006008a1f78008b1f7800e9
:1002a00000000600a1028800800478000000eb0036
:1002b0001f003700e284440054a0b4009905ba003e
:1002c000e284440054a0b4009906ba00e2844400d9
:1002d00054a0b4000006eb00476fde00fd07b2003b
:1002e000ae018800636ce10003003a00eaff0700fa
:1002f0000000eb000e003700606ce10008003a00df
:10030000004deb000a05e800020039003420ec0043
:100310000af0a0008b05e900f9ff3e000400370059
:100320006168e100010032000086eb000b0007006d
:1003300019c7ba001905ba000e04e00003003a001c
:100340000a00e000dbff3a0000000600fe07b200f2
:10035000ae0288008a047800f5ff37000cd0a300b5
:10036000e20f4d001c00390089027800354dba00bb
:100370000a05e800020039003420ec000af0a00071
:100380008b05e9000f003200254dba000a05e80090
:10039000020039003420ec000af0a0008b05e900cf
:1003a000080032000c00e0000600320015cdba0053
:1003b0000a05e800020039003420ec000af0a00031
:1003c0008b05e9008984e80054a0b4000b00e0002c
:1003d000e2ff3a00000006009902ba00055d7800cd
:1003e0008b05e900f7ff3200c82ade00055d7800c2
:1003f0008b05e900f3ff32000c00e000f1ff320052
:1004000019ddba00eeff3700761604000000000088
:100410003600f800809fbe00829fbe00849fbe0011
:10042000869fbe000000fa008020a9000000eb00bb
:10043000d90a07000080fa004f03be004f02be0039
:100440004f01be004f00be003600f900004006001c
:100450003600f800809fbe00829fbe00849fbe00d1
:10046000869fbe000000fa00c40a07008040a90071
:1004700010002000c80a07000080fa004f03be00e9
:100480004f02be004f01be004f00be003600f90013
:10049000004006003600f800809fbe00829fbe002c
:1004a000849fbe00869fbe000000fa008060a90005
:1004b00020002000b80a07000080fa004f03be00a9
:1004c0004f02be004f01be004f00be003600f900d3
:1004d000004006003600f800809fbe00829fbe00ec
:1004e000849fbe00869fbe000000fa008080a900a5
:1004f00030002000a80a07000080fa004f03be0069
:100500004f02be004f01be004f00be003600f90092
:10051000004006003600f800809fbe00829fbe00ab
:10052000849fbe00869fbe000000fa008600a900de
:1005300070002000980a07000080fa004f03be00f8
:100540004f02be004f01be004f00be003600f90052
:10055000004006003600f800809fbe00829fbe006b
:10056000849fbe00869fbe000000fa0050408000bd
:100570000000e00002003200504080000000010056
:1005800030e32000104078008040e80030e3200095
:100590000148780020e3200011c0b3000148780032
:1005a0008860a9000080fa004f03be004f02be0021
:1005b0004f01be004f00be003600f90000400600ab
:1005c0000040da000000fe00000005008001780015
:1005d00002003700b15978000201e9000200e00092
:1005e000fcff3a00000006008001780081027800dc
:1005f000810f50003b00320002824000840f500007
:100600000300310002024000848f500001003900d5
:10061000eeff370000826800810f50001b003100a0
:100620000408a30005003200150037000200e000b6
:100630002c0032000201e900b15978000308a30040
:10064000faff3a0003037800820278000102780082
:1006500002003700b41978000281e900e10f51006f
:10066000fcff3e00618162000500a100850143009e
:100670008582400002003700b55978000201e90088
:100680000200e000fcff3a00000006000408a3009e
:1006900012003a00040037000200e00011003200ae
:1006a0000201e90061707900820140000308a300a3
:1006b000f9ff3a0082017800020037000281e90068
:1006c00061307900e10f5100fcff3e006181610063
:1006d000020037000201e900617079000200e000c9
:1006e000fcff3a0000000600889fbe008a9fbe0003
:1006f000800478000200e0005a00320001407800d7
:10070000814c780082814400f1f99f00e20f510092
:100710005400360091449800a1449800e1f99f00ec
:10072000d1f99f00e60f51004e003600b144980009
:10073000c1f99f00e80f51004a0036000905ea00a0
:10074000630565000a8444000a055100c1ff2f00bb
:10075000010565000080fb008000eb001210200006
:100760001310200043000700008cbe000a01440063
:1007700060b99f0071b99f00e80f5500390036003d
:100780002004980031049800400498005104980017
:1007900020b99f0031b99f0040b99f0051b99f0017
:1007a000f80f55002f00360060049800710498007f
:1007b000000c9800110c9800200c9800310c980047
:1007c000400c9800510c980020b19f0031b19f005f
:1007d00040b19f0051b19f0060b19f0071b19f0077
:1007e00000b99f0011b99f006401640078014100c5
:1007f00002044400020555006011b8000203be0067
:100800000002be000403be006022b80000007200b7
:100810008180720002017300838173000f00370032
:1008200008027800009abe00029abe00009abe003c
:100830000292be00000c9800110c9800220c980047
:10084000330c9800400c9800510c9800620c9800f2
:10085000730c98000a02b1000802b000ff0f5500a7
:10086000efff3e00090078004f05be004f04be00b8
:1008700000000600020ab900001bb9000200b8001f
:0c088000810042008100430000000600df
:020000040000fa
:10088c0000200000000000000b0800000000000029
:10089c00000000000000000000000000000100004b
:1008ac000020000000000000fe57000001000000c6
:1008bc000900000000000000000000000000000023
:1008cc00000000000001000000000000000000001b
:1008dc00000000000000000000000000000200000a
:1008ec000100000001000000005600003400000070
:1008fc0000000000080800000000000000000000dc
:10090c0000000000000000000000000000000000db
:0c091c00000000000020000000000000af
:020000040000fa
:100928000000000000000000ab4100004181000011
:10093800fdc20000c383000056830000820200004d
:1009480051c40000c6860000fa8500008707000031
:10095800ac060000050500000747000044840000bd
:1009680009c90000cc8c0000a28800008d0d000091
:10097800f40b00000f0f00005f4a00004e8e0000cd
:10098800580d00000a0a0000f34c00004b8b0000d1
:10099800a5cf0000c98900000e8e0000880800005d
:1009a800b9d30000d89800001292000099190000ed
:1009b800441100001b1b0000ef5000005a9a000071
:1009c800e81700001e1e0000435600005f9f00004d
:1009d80015d50000dd9d0000be9400009c1c0000a1
:1009e800b01a0000141400001b5b000055950000ad
:1009f8004dd80000d7970000e69900009616000031
:100a0800e1de0000d29200004a9f0000931300002c
:100a18001c1c000011110000b75d00005090000080
:100a2800d9e60000f0b0000072a70000b131000064
:100a380024240000333300008f65000072b20000e8
:100a480088220000363600002363000077b70000d4
:100a580075e00000f5b50000dea10000b434000028
:100a6800d02f00003c3c00007b6e00007dbd0000e4
:100a78002ded0000ffbf000086ac0000be3e000068
:100a880081eb0000faba00002aaa0000bb3b000074
:100a98007c29000039390000d768000078b80000c8
:100aa8006035000028280000cb74000069a9000008
:100ab8009df70000ebab000036b60000aa2a000044
:100ac80031f10000eeae00009ab00000af2f000038
:100ad800cc3300002d2d0000677200006cac0000c4
:100ae80069fc0000e4a40000c2bd0000a5250000c8
:100af800943e0000272700003f7f000066a6000004
:100b080038380000222200009379000063a3000017
:100b1800c5fa0000e1a100006ebb0000a0200000a3
:100b2800198c0000a0e00000b2cd0000e1610000d7
:100b3800e44e0000636300004f0f000022e2000053
:100b48004848000066660000e309000027e7000047
:100b5800b58a0000a5e500001ecb0000e464000093
:100b6800104500006c6c0000bb0400002ded000077
:100b7800ed870000afef000046c60000ee6e0000f3
:100b880041810000aaea0000eac00000eb6b000007
:100b9800bc430000696900001702000028e8000053
:100ba800a05f0000787800000b1e000039f90000f3
:100bb8005d9d0000bbfb0000f6dc0000fa7a000037
:100bc800f19b0000befe00005ada0000ff7f000023
:100bd8000c5900007d7d0000a71800003cfc0000b7
:100be800a9960000b4f4000002d70000f5750000d3
:100bf8005454000077770000ff15000036f6000017
:100c0800f8520000727200005313000033f3000022
:100c180005900000b1f10000aed10000f0700000b6
:100c2800c06a0000505000006b2b000011d100007a
:100c38003da8000093d3000096e90000d2520000be
:100c480091ae000096d600003aef0000d75700009a
:100c58006c6c000055550000c72d000014d400002e
:100c6800c9a300009cdc000062e20000dd5d00001a
:100c7800346100005f5f00009f2000001ede00005e
:100c8800986700005a5a0000332600001bdb00005a
:100c980065a5000099d90000cee40000d8580000ee
:100ca80079b9000088c80000d2f80000c9490000de
:100cb800847b00004b4b00002f3a00000aca00005a
:100cc800287d00004e4e0000833c00000fcf00003e
:100cd800d5bf00008dcd00007efe0000cc4c00008a
:100ce8007070000044440000db31000005c50000be
:100cf8008db2000087c7000026f30000c64600003a
:100d080021b4000082c200008af50000c34300003d
:100d1800dc760000414100007737000000c0000089
:100d280099590000004000003218000041c100003d
:100d3800649b0000c3c30000cfda000082420000b9
:100d4800c89d0000c6c6000063dc0000874700009d
:100d5800355f0000054500009e1e000044c40000e9
:100d680090900000cccc00003bd100008d4d0000dd
:100d78006d5200000f4f0000c61300004ece000059
:100d8800c15400000a4a00006a1500004bcb00005d
:100d98003c960000c9c9000097d7000088480000a9
:100da800208a0000d8d800008bcb00009959000099
:100db800dd4800001b5b0000760900005ada0000dd
:100dc800714e00001e5e0000da0f00005fdf0000b9
:100dd8008c8c0000dddd000027cd00009c5c00004d
:100de80029430000145400008202000055d5000079
:100df800d4810000d7d700007fc0000096560000bd
:100e080078870000d2d20000d3c6000093530000b8
:100e180085450000115100002e04000050d000004c
:100e280040bf0000f0f00000ebfe0000b1710000d0
:100e3800bd7d000033730000163c000072f2000014
:100e4800117b000036760000ba3a000077f7000000
:100e5800ecb90000f5f5000047f80000b474000094
:100e6800497600003c7c0000e23700007dfd000070
:100e7800b4b40000ffff00001ff50000be7e0000b4
:100e880018b20000fafa0000b3f30000bb7b0000c0
:100e9800e5700000397900004e31000078f8000054
:100ea800f96c000028680000522d000069e9000074
:100eb80004ae0000ebeb0000afef0000aa6a0000f0
:100ec800a8a80000eeee000003e90000af6f0000e4
:100ed800556a00002d6d0000fe2b00006cec000030
:100ee800f0a50000e4e400005be40000a565000054
:100ef8000d67000027670000a626000066e60000d0
:100f0800a1610000226200000a20000063e30000e3
:100f18005ca30000e1e10000f7e20000a06000002f
:100f280080d50000a0a000002b940000e121000063
:100f38007d17000063230000d656000022a200009f
:100f4800d1110000662600007a50000027a7000093
:100f58002cd30000a5a5000087920000e42400001f
:100f6800891c00006c2c0000225d00002dad0000e3
:100f780074de0000afaf0000df9f0000ee2e00001f
:100f8800d8d80000aaaa000073990000eb2b000033
:100f9800251a0000692900008e5b000028a80000bf
:100fa80039060000783800009247000039b900007f
:100fb800c4c40000bbbb00006f850000fa3a000003
:100fc80068c20000bebe0000c3830000ff3f0000ef
:100fd800950000007d3d00003e4100003cbc000043
:100fe80030cf0000b4b400009b8e0000f53500003f
:100ff800cd0d000077370000664c000036b60000c3
:10100800610b000072320000ca4a000033b30000ce
:101018009cc90000b1b1000037880000f030000022
:101028005933000050100000f272000011910000c6
:10103800a4f10000939300000fb00000d21200004a
:1010480008f7000096960000a3b60000d717000026
:10105800f5350000551500005e740000149400007a
:1010680050fa00009c9c0000fbbb0000dd1d000046
:10107800ad3800005f1f0000067900001e9e0000ca
:10108800013e00005a1a0000aa7f00001b9b0000c6
:10109800fcfc00009999000057bd0000d81800001a
:1010a800e0e00000888800004ba10000c9090000aa
:1010b8001d2200004b0b0000b66300000a8a0000e6
:1010c800b12400004e0e00001a6500000f8f0000ca
:1010d8004ce600008d8d0000e7a70000cc0c000056
:1010e800e92900004404000042680000058500006a
:1010f80014eb000087870000bfaa0000c6060000a6
:10110800b8ed00008282000013ac0000c3030000a9
:10111800452f000041010000ee6e00000080000035
:10112800809fbe00821f7800c08020000110200030
:10113800a102880041492000022020003118ba008d
:101148000201e900fdff3a004f0178004f00be00a0
:10115800000006005400f800889fbe0094080200b2
:10116800000000000404be002800b0000980b000a0
:101178000203be00c48020000600b00005003a004b
:101188000700b00003003a000001eb008001eb000b
:10119800070037000830e10002003a000938e10092
:1011a80031003200a70288001601ba009681ba0001
:1011b800c80ade0082c26a00c22add008502420037
:1011c800c808dd000080fd00814068000040eb0099
:1011d800350068009580680081026900c82ade0031
:1011e800c22add0085024200c808dd000080fd003b
:1011f800814068000040eb00350068009580680079
:10120800c80ade0083c26a00c22add0085024200e5
:10121800c808dd000080fd00814068000040eb0048
:10122800350068009580680081826900c82ade0060
:10123800c22add0085024200c808dd000080fd00ea
:10124800814068000040eb00350068009580680028
:101258002600b0000780b0000830e100d1ff3a0056
:101268000938e100cfff3a004f04be005400f900ee
:04127800000006006c
:020000040000fa
:10127c001800fa00889fbe0011c0b300640047003c
:10128c0001487800e1d02000660047000108780092
:10129c00b1002000e0d020007e0507006c00470064
:1012ac00b2002000e1d02000c5fc0700660047001a
:1012bc0010017800e7014100934178008381fb0025
:1012cc0068024100144278000482fb004822dd00d1
:1012dc008481710003007800e9014100934178009a
:1012ec008381fb006a014100124178000281fb00fe
:1012fc004811dd000281710082007800008fbe0071
:10130c0000802f00f1ff2f001e01be0002027800aa
:10131c0003017800800178008100780003006200ee
:10132c008100610081047800000478000800be0090
:10133c00be0f5000ae8f5800030032008040eb000f
:10134c0064004700014878006600470010017800ef
:10135c00e3014100934178008381fb00640241006a
:10136c00144278000482fb004822dd008481710065
:10137c0003007800e5014100934178008381fb0074
:10138c0066014100124178000281fb004811dd002a
:10139c000281710082007800fd02070021003700f5
:1013ac0000802000010020003e014000ae8148007a
:1013bc000200be000001be001e00be00cd050700ed
:1013cc000004e000140032001e01be000000eb001f
:1013dc009d050700680147000089be0068004700b2
:1013ec001000be00190307000080fb0000f0a700ee
:1013fc000000ea000000ea00cf00de0064004700b5
:10140c000148780000802000010020001e0f4000e1
:10141c005e974800030037008040eb0064004700f3
:10142c000148780064004700104078000004e00098
:10143c00280032006600470010017800e7014100e7
:10144c00934178008381fb006802410014427800cc
:10145c000482fb004822dd008481710003007800c7
:10146c00e9014100934178008381fb006a0141004e
:10147c00124178000281fb004811dd0002817100ed
:10148c008200780066014700120178008201e800b2
:10149c00934178008381fb000281e80012417800bf
:1014ac000281fb004811dd00028171006112b8005d
:1014bc004b29dd00c521de00830171004b21dd00cd
:1014cc000000410081804900be0f5000ae8f5800d3
:1014dc00b3ff3e00b30207006400470010407800e1
:1014ec000004e0002c003200660047001001780078
:1014fc00e7014100934178008381fb0068024100c1
:10150c00144278000482fb004822dd0084817100c3
:10151c0003007800e9014100934178008381fb00ce
:10152c006a014100124178000281fb004811dd0084
:10153c000281710082007800660147001201780078
:10154c008201e800934178008381fb000281e8006e
:10155c00124178000281fb004811dd00028171000c
:10156c006112b8004b29dd00c521de00830171003a
:10157c004b21dd000000410081804900be0f50006e
:10158c00ae8f580004003a0011c0b300770047003a
:10159c000148780003003700e1cfb3007700470023
:1015ac00014878006c004700c1002000d9040700f6
:1015bc006600470010007800e3004000914078007e
:1015cc0060c16000a1cab30001417100e30040009a
:1015dc0082487800e40040001141780080c0eb00a4
:1015ec0001417100e400400082487800e5004000b1
:1015fc009140780060c1600051c5b3000141710099
:10160c00e500400082487800e60040001141780077
:10161c0080c0eb00814071006600400001487800fa
:10162c007700470010407800e14f500002003a006c
:10163c000000eb0001003700300020004f04be001a
:08164c000080fa000000060016
:020000040000fa
:101654002200fa00e1d020000e80e80001087800a2
:1016640020002000cb0507000080fb00c800dd003f
:10167400640047000108780010002000c505070039
:101684000080fb00e40047009100780081007000b6
:1016940064004700010878005f040700e400470085
:1016a40091007800eb804000810f5000020031006f
:1016b40020002000ba0037006400470010007800c2
:1016c4006b00400080007800e0d020007304070025
:1016d4006e004700b2002000e1d02000bafb0700f2
:1016e40011c0b30079004700014878000e80e8007b
:1016f40010017800e7014100934178008381fb00e9
:1017040068024100144278000482fb004822dd0094
:101714008481710003007800e9014100934178005d
:101724008381fb006a014100124178000281fb00c1
:101734004811dd00028171008200780066014700d3
:101744000089be0064004700100078000000d1004a
:101754006101b800660047001000be0002004000ae
:10176400838048000001be00660047001000be00f0
:10177400e20407000004e000600032006400470057
:1017840010007800670060000000e0005b003a0091
:101794006400470090007800500f2000808f5000b4
:1017a40056003e000e80e80010017800e30141007d
:1017b400934178008381fb00640241001442780065
:1017c4000482fb004822dd0084817100030078005c
:1017d400e5014100934178008381fb0066014100eb
:1017e400124178000281fb004811dd000281710082
:1017f40082007800e80107000000eb00000f780089
:10180400370037000e80e80010017800e70141003e
:10181400934178008381fb00680241001442780000
:101824000482fb004822dd008481710003007800fb
:10183400e9014100934178008381fb006a01410082
:10184400124178000281fb004811dd000281710021
:10185400820078001e0178000201d1008001eb00b3
:1018640000004100818049000001be000000eb003f
:10187400770407006a0147000089be000e80e80073
:10188400100078006b0040009e0040007a00470082
:10189400820020004cfb07007e0047001001be00c0
:1018a4007a0047001000be000202be000001be0024
:1018b4006a0047001000be00f40107000004a20003
:1018c4000004e00004003200e1cfb30079004700d7
:1018d40001487800070037009e007800688f4000b8
:1018e40064004700100078009e007800808f50004c
:1018f400c4ff3900ad01070003003700e1cfb30096
:1019040079004700014878006e004700c1002000bc
:10191400020407000e80e80010007800e300400095
:101924009140780060c16000a1cab3000141710018
:10193400e300400082487800e40040001141780050
:1019440080c0eb0001417100e4004000824878004f
:10195400e50040009140780060c1600051c5b300cb
:1019640001417100e500400082487800e600400033
:101974001141780080c0eb00814071006600400096
:10198400014878007900470010407800e14f50008a
:1019940002003a000000eb00010037003000200094
:0819a4000080fa0000000600bb
:020000040000fa
:1019ac000c01fa00e1d020000e80e800010878005c
:1019bc00b1002000e0d02000b6030700680047000b
:1019cc00b2002000e1d02000fdfa07000e80e800f4
:1019dc0010017800e7014100934178008381fb00fe
:1019ec0068024100144278000482fb004822dd00aa
:1019fc008481710003007800e90141009341780073
:101a0c008381fb006a014100124178000281fb00d6
:101a1c004811dd0002817100820078000e81e8001f
:101a2c00120178008201e800934178008381fb0069
:101a3c000281e800124178000281fb004811dd00b0
:101a4c00028171000201d1008001eb000002410013
:101a5c00818249000e80e80010017800e701410006
:101a6c00934178008381fb006803410016437800a2
:101a7c000683fb004833dd0086817100030078008b
:101a8c00e9014100934178008381fb006a01410028
:101a9c00124178000281fb004811dd0002817100c7
:101aac00820078000401be00120407000004e0006c
:101abc005b0032000e80e800100078008000e80027
:101acc00914078008180fb000080e8001040780095
:101adc000080fb004800dd00008070008000780072
:101aec00400f2000808f50004d003e000e80e8001b
:101afc00100078008000e800914078008180fb00a5
:101b0c000080e800104078000080fb004800dd00f9
:101b1c0000807000630060000000e00040003a00ac
:101b2c000000eb00000f78002d0037000e80e8005d
:101b3c0010017800e7014100934178008381fb009c
:101b4c0068024100144278000482fb004822dd0048
:101b5c008481710003007800e90141009341780011
:101b6c008381fb006a014100124178000281fb0075
:101b7c004811dd0002817100820078001e0178009e
:101b8c000201d1008001eb0000004100818049007e
:101b9c000001be000000eb00ab030700640147002e
:101bac000089be00640047001000be001a01070047
:101bbc00821020000e0141000089be006800470021
:101bcc006c0040001e004000811020008e80400000
:101bdc00420020007afa07009e007800648f4000d3
:101bec000e80e800100078008000e800914078003a
:101bfc008180fb000080e800104078000080fb0032
:101c0c004800dd00008070009e0f5000c7ff3e00b2
:101c1c0011c0b30073004700014878000f00370073
:101c2c00e1cfb3007300470001487800680047001b
:101c3c0090007800f00f2000808060006800470062
:101c4c00010878006a0047009000780000f02f002f
:101c5c00808060006a004700010878006800470037
:101c6c00100078004800de00ea00470011017800ff
:101c7c00f10f200081006100c808dd000100700038
:101c8c00ec00400068004700220307007300470087
:101c9c0010407800e14f500002003a000000eb00c9
:101cac0001003700300020000080fa000000060020
:020000040000fa
:101cbc001200fa00889fbe00f000470080087800f0
:101ccc0070004700100078000000e00002003200b5
:101cdc000040eb00aa00370080248400912484008b
:101cec000001be007000470010007800560307008a
:101cfc006401470054010700680047001000be0053
:101d0c005d0407000004e000020032000040eb001c
:101d1c009b0037006c0047001000be005604070003
:101d2c000004e000020032000040eb009400370099
:101d3c00680047001001be00f0ff210001002000e8
:101d4c00800f5100818f590002003e000040eb00d3
:101d5c008b0037006c0047001001be00f0ff210023
:101d6c0001002000800f5100818f590002003e00bd
:101d7c000040eb0082003700680047001001be00f5
:101d8c00e07f250011002000800f5100818f590049
:101d9c00020036000040eb00790037006c00470071
:101dac001001be00e07f250011002000800f5100c3
:101dbc00818f5900020036000040eb0070003700a4
:101dcc00680047001001be006c0047001000be0008
:101ddc00800f5100818f5900020036000040eb004b
:101dec0067003700680047001001be0080248400a3
:101dfc0091248400800f5100818f590007003e0010
:101e0c006c0047001001be008024840091248400e3
:101e1c00800f5100818f5900130031006c00470076
:101e2c001000be000001be007000470010007800da
:101e3c00050307000004be00680047001000be0048
:101e4c000001be007000470010007800fe02070081
:101e5c000802be000001be006000b800bcfc070018
:101e6c00008fbe003b0037006000b800008fbe0042
:101e7c00680047001001be00802484009124840077
:101e8c00800f5100818f590014003200802484008f
:101e9c009124840062005000e08058000001be00d4
:101eac007000470010007800e70207000004be0035
:101ebc00680047001000be000001be007000470023
:101ecc0010007800e00207000802be000001be000e
:101edc001e00be009efc0700008fbe006022b800f2
:101eec006011b8001e00be0099fc0700008fbe00f8
:101efc006022b8006011b8001e00be0094fc070000
:101f0c00008fbe006c0047001000be000001be0038
:101f1c007000470010007800cb0207000004be00e0
:101f2c00802484009124840064004000e0804800f8
:101f3c000001be007000470010007800c2020700cc
:101f4c000802be000001be001e00be0080fc07009f
:101f5c00008fbe00640047001000be003e01680008
:101f6c00ae8168000200be000080700000f0a70087
:101f7c000000ea000000e9004f00de00004078009d
:0c1f8c004f04be000080fa0000000600b8
:020000040000fa
:101f98000000fe00e2e22000001978000109780044
:101fa800000006000000fe000000eb008000eb00cf
:101fb800f8ff07006627ef00000006000000fe009b
:101fc8000000fe00801f7800811f7800821f7800c3
:101fd800e1e220001204800083e0a90031007800cb
:101fe800303b880011007800303b880061e7a8008a
:101ff800000000000000000061e7af00feff3700ae
:1020080002f0a70083e0a8004f017800cf00780015
:102018004f007800000006000000fe00a2028000c9
:10202800a10288009080ba001000ba00a2028800bd
:10203800000006000000fe00a2028000a102880045
:102048001000ba00a2028800000006000000fe008e
:10205800f27f20000001610008003a0032002400ed
:10206800023b8800103b8800213b8800e60f0200f5
:10207800000000001000200061a7af000000200051
:10208800000006000000fe0061e7af00feff370019
:102098000000a700130037000010a7001100370048
:1020a800213b8800103b880010002400003b88007a
:1020b800a0028000a10f2000a102880001002000da
:1020c8008208bb008398bb008408bb008598bb00ce
:1020d800e60f020000000000a002880010002000a7
:1020e80061a7af0000002000000006000000fe000d
:1020f80061e7af00feff37000000a70014003700bb
:102108000010a70012003700213b8800103b880010
:10211800a102800010002400003b8800a00f2000ce
:10212800a0028800000020000208bb00f20f200077
:102138000298bb000308bb000298bb00e60f020030
:1021480000000000a10288001000200061a7af0075
:1021580000002000000006000000fe0061e7af005c
:10216800feff3700f30f20008081610012003a0063
:10217800103b8800213b8800a1028000a00f2000ae
:10218800a002880020002400003b880000002000f6
:10219800031020003208bb003298bb000018e10091
:1021a800fcff3a00e60f020000000000a1028800d0
:1021b8001000200061a7af0000002000000006000a
:1021c8000000fe0061e7af00feff3700f30f2000bc
:1021d8008081610013003a00103b8800213b880091
:1021e800a1028000a00f2000a00288002000240087
:1021f800003b88000000200003102000f40f20009e
:102208003208bb000498bb000018e100fcff3a004c
:10221800e60f020000000000a10288001000200064
:1022280061a7af000000200000000600f27f200038
:10223800000061000000060002802f00000061001d
:0c224800f2ff2f00810061000000060082
:020000040000fa
:102254000600fa00889fbe00008fbe00640047009d
:10226400020878001e00be0074ff07008000eb0027
:1022740064014700120178000089be006400470031
:10228400100078001004be0022002000030020008b
:102294003e004100ae80490068ff07008000eb006b
:1022a400c000dd00000020000800400089804800d4
:1022b40064014700120178000089be00420020003a
:1022c400030020003e004100ae8049005bff070090
:1022d4008000eb00640147001201780064014100b2
:1022e4000089be00640047001000780064004000cc
:1022f4001004be0062002000030020003e004100e4
:10230400ae8049004dff07008000eb00c000dd00f7
:102314000000200008004000898048006401470054
:1023240012017800640141000089be00820020008f
:10233400030020003e004100ae8049003fff07003b
:102344008000eb006401470012017800680141003d
:102354000089be0064004700100078006800400057
:102364001004be00a2002000030020003e00410033
:10237400ae80490031ff07008000eb00c000dd00a3
:1023840000002000080040008980480064014700e4
:1023940012017800680141000089be004f04be00ac
:0823a4000080fa0000000600b1
:020000040000fa
:1023ac000600fa00881f780019010700000f78005a
:1023bc001e0078000000e00002003a00100020002f
:1023cc00460037001e007800ea0f500002003e0065
:1023dc0020002000410037000000eb006b020700da
:1023ec008e80e8008048780010002000670207000b
:1023fc000084fb0020002000640207000080fb002a
:10240c004800dd0000004400eb0040006400470081
:10241c00010878006400470090007800001020004c
:10242c00808f5000070036000e80e80010407800c6
:10243c00e34f500003003200d00f2000980107003a
:10244c00260037000e80e800104078000080fb006a
:10245c00e30f500016003200e30f500007003c0061
:10246c00e10f50000e003200e10f50000a003c005a
:10247c000000e0000c00320016003700ea0f50009c
:10248c0010003200eb0f500010003200e90f50002a
:10249c00090032000f0037006bfc07000f003700fb
:1024ac003ffd07000d003700ef0107000b00370060
:1024bc006ffb0700090037004b0107000000eb0021
:1024cc000600370042000700040037001302070023
:1024dc0002003700f00f2000710107004f04780054
:0824ec000080fa000000060068
:020000040000fa
:1024f4000000fa006626ef007a26ef0000102000a4
:102504007034880070f9270010338800f0fe2f0023
:10251400b0338800702f2000503488007426ef00f8
:102524008826ef009c26ef000008200090338800e6
:102534008626ef0000202000d03488006826ef00b3
:102544007c26ef009026ef007000200050338800b6
:10255400f0202f00f03388007000200090348800b1
:1025640001088000f00b200000816000600420005e
:10257400710520000310200080497800814978000b
:1025840082497800a13d800000fc2f00008060009b
:102594009001b300a03d8800613f800000f82f0047
:1025a400008060003000b300603f880000088000b5
:1025b400000178000260a000600420007105200082
:1025c400031020008049780081497800824978000e
:0825d4000080fa00000006007f
:020000040000fa
:1025dc000e00fa00b10020000e007800ad000700dc
:1025ec000000eb00b2fd07000004a2000004e000b4
:1025fc0004003200c1cfb3006b00470001487800e3
:10260c000300370011c0b3006b004700014878008d
:10261c009e007800f00f200000806000000f780012
:10262c000e80e8009000780000f02f0080806000a1
:10263c000e80e80001087800c10020000e00780030
:10264c00b40007006b00470010407800e14f5000c9
:10265c0002003a000000eb000100370030002000bf
:08266c000080fa0000000600e6
:020000040000fa
:102674000e0d0000000100008000000000080000b2
:1026840004000000800000000408000002000000b4
:1026940082000000010000000c0c00000201000098
:1026a4008000000006080000020000008000000016
:1026b4000c08000000040000800000002e0e000042
:1026c4000400000082000000ffffff00ff00000084
:1026d4000e0e00002000000080000000080800002a
:1026e4000200000082000000ffff0000320e000024
:1026f40002000000800000000a0800000200000040
:0827040080000000000000004d
:020000040000fa
:10270c000000fa0000002300100888000621ef00ea
:10271c006821ef006a21ef000821ef000070200013
:10272c00500888000c21ef000e21ef007821ef00fb
:10273c007a21ef007c21ef007e21ef008021ef0059
:10274c008221ef008421ef008621ef000001eb00d5
:10275c0080072000a1092000131020008049780078
:10276c0081497800824978000001eb006004200068
:10277c007105200003102000804978008149780001
:0c278c00824978000080fa00000006007e
:020000040000fa
:102798000000fa007c00070000c8bf000004a20087
:1027a8000004e00018003200a90107000004e0005e
:1027b8000300320010c0b30000e8b7001200370071
:1027c80004c8bf000004e000030032000000eb0072
:1027d80038fd070001e8b70001c8bf000004a200e7
:1027e8000004e0000200320010c0b30000e8b700a7
:1027f80000c8bf000004a2000004e000020032008c
:10280800e8010700d4010700e6fe07000080fa008f
:0428180000000600b6
:020000040000fa
:10281c000000fa00881f780006c8bf000004a20060
:10282c000004e0000f003200221020008000eb00ba
:10283c00c0c02000a9f7070010c0b30006e8b7001d
:10284c00090037006868800016010700c1c020002d
:10285c0081004400804878000800e8006068880027
:10286c000100370000000000600107000004e000d8
:10287c000400320061688000f00f2000808f50004f
:10288c00f0ff3600606880004f0478000080fa008a
:04289c000000060032
:020000040000fa
:1028a0000600fa000e81e800000978006400470085
:1028b00001087800d9ff0700000f78006400470086
:1028c000100078009e0f50000200310064004700a5
:1028d000100f78001e017800c1c020000e80e800b3
:1028e0001000780039f70700001020009e0050000b
:1028f000c0c020001e004000010178008000780068
:10290000c0c0200038f70700606880001e0050003b
:10291000606888001e0078000080fa000000060051
:020000040000fa
:102920000400fa00000f78000e80e800010878002b
:102930000c003700ad0007000004e0000900320081
:102940001e007800104078001e0fe8001e010700ee
:102950000e80e800100078008000e9000e80e8009a
:10296000010878000e80e800100078000000e00008
:10297000f0ff3a00000000002b0107000004a20055
:102980000004e000fcff3a000080fa0000000600ae
:020000040000fa
:102990000000fa00104080000000e80010408800ad
:1029a00010002000a200070011408000401f2000fe
:1029b000808f50000d003a00703480004300de002c
:1029c000614060000004a200614060000080fb00e4
:1029d000610060004300dd00713480000130a1001f
:1029e00001007000703488000228ef000080fa00b7
:0429f00000000600dd
:020000040000fa
:1029f4000c00fa00e04528008e007800b01878003a
:102a0400a0107800e480400064004000b018780012
:102a1400a0107800e480400064004000b018780002
:102a2400a0107800e480400064004000b100200061
:102a3400e0d0200099ff0700c10020000e007800bc
:102a4400b6ff0700620107000080fa0000000600dc
:020000040000fa
:102a54000a00fa00e4004700800878006600470096
:102a64000288be00302284004122840066014700af
:102a74001201be00001f5100019759006400470075
:102a840010007800c200dd0060442800008040008f
:102a94001000be003e014000ae8148000200be00ae
:082aa4000080fa0000000600aa
:020000040000fa
:102aac000e00fa00ec00470080087800b10020000e
:102abc00e0d0200077ff0700b2002000e1d020001a
:102acc000e007800bef607006c004700100078007e
:102adc00804078006b00470001487800c10020005e
:102aec000e0078008bff0700300020000080fa00f9
:042afc0000000600d0
:020000040000fa
:102b00000800fa00008fbe00640047000288be0083
:102b10001e00be000f0007000004e00009003200a4
:102b2000640047001000be0062005000e0805800c2
:102b3000080007000004e00002003200100020003e
:102b4000010037000000eb00004078000080fa0030
:042b5000000006007b
:020000040000fa
:102b54000400fa00008fbe00f0ff210001002000f5
:102b64001e01be00800f5100818f590008003600fd
:102b7400e07f2500110020001e01be00800f5100df
:102b8400818f590002003e00100020000100370030
:102b94000000eb00004078000080fa00000006000e
:020000040000fa
:102ba4000000fa009021ef0010a12700900c88008b
:102bb40000022000a00c8800504080000000e000cb
:102bc40002003a0060672100d40007008860a90071
:102bd4009860a80020e320008040eb0001487800c2
:082be4000080fa000000060069
:020000040000fa
:102bec000000fa00d11c8000001020000080600062
:102bfc000000e00007003200d11c800000402000e3
:102c0c00008060000000e000020032001000200094
:102c1c00010037000000eb00004078000080fa0053
:042c2c00000006009e
:020000040000fa
:102c30000200fa00000f78000300370000fa2000bd
:102c400001002000460007001e00780000f0a700e9
:102c50000000ea000000ea004f00de0000407800bb
:102c60001e0fe9000004e000f4ff3a000080fa00c3
:042c7000000006005a
:020000040000fa
:102c74002600fa00a146280011000900311f78003f
:102c8400315f78005e02b100b1002000e0d0200086
:102c940002ff0700510220000e0078001fff07000a
:0c2ca4000000eb000080fa0000000600b9
:020000040000fa
:102cb0000000fa0000000000d01c800061006000ed
:102cc0000000e000fcff3200d01c800062006000c9
:102cd0000000e000010032009a23a900f01c8000ef
:0c2ce000004078000080fa0000000600b0
:020000040000fa
:102cec000000fa00d03380004400de006140600038
:102cfc000004a200614060000080fb0061006000e5
:102d0c004400dd00d13380000140a10001007000bf
:0c2d1c00d03388000080fa0000000600a0
:020000040000fa
:102d28001400fa00a144280009000900311f7800a6
:102d38004e01b100b1002000e0d02000d6fe07000f
:102d4800410120000e007800f3fe07000000eb00b0
:082d58000080fa0000000600f3
:020000040000fa
:102d6000f03fb1000180b10006003500ee0309001c
:102d700000000000403fb1000180b100fbff3d00ba
:102d80001000b000203fb0000200350000800900b4
:082d9000000000000000060035
:020000040000fa
:102d98000200fa00000f7800606880009e0f500063
:102da80002003e0020c4b30003003700c0c020006a
:102db8001e004000104078000080fa000000060065
:020000040000fa
:102dc8000200fa00004f780000000000d11c8000cb
:102dd80000202000008060000000e000fbff3a00b7
:102de8001e80fb00e01c88000080fa00000006003e
:020000040000fa
:102df8000000fa00d01c80000040780061406000ac
:102e08000080fb0000f0a7000000ea000000ea00d4
:102e18004f00de00004078000080fa000000060045
:020000040000fa
:102e28000000fa00d01c80004800de00614060000d
:102e38000080fb0000f0a7000000ea000000ea00a4
:102e48004f00de00004078000080fa000000060015
:020000040000fa
:102e58000000fa0021338000000820000080600094
:102e680000f0a7000000ea000000e9004f00de00c3
:0c2e7800004078000080fa000000060016
:020000040000fa
:102e84000400fa00008fbe001e007800610060009c
:102e940000f0a7000000ea000000ea004f00de0096
:0c2ea400004078000080fa0000000600ea
:020000040000fa
:102eb0000000fa0080002000c01c88009a23ef0068
:102ec00070062000001d8800a223ef0099e3a800ef
:0c2ed0009b43a8000080fa0000000600f0
:020000040000fa
:102edc000000fa004400070083fd0700050007000e
:102eec0007fe0700efff07002bff07000080fa002a
:042efc0000000600cc
:020000040000fa
:102f00000000fa0041058000f0ff2800008060000a
:102f100000c0a000400588000080fa000000060004
:020000040000fa
:102f20000200fa00000f78009860a9009e00780067
:102f3000514088009860a8000080fa000000060058
:020000040000fa
:102f40000000fa0020e320008040eb0001487800f8
:102f50009860a80095e1a8000080fa000000060033
:020000040000fa
:102f60000200fa00c0002200000f78001e00780066
:0c2f7000000001000080fa0000000600d4
:020000040000fa
:102f7c000000fa00e0e020008007780060e220000a
:0c2f8c00000188000080fa000000060030
:020000040000fa
:102f98000200fa00000f78009e0078004140880087
:042fa800ffff3700f0
:020000040000fa
:102fac000000fa0095e1a9009860a9000080fa00e1
:042fbc00000006000b
:020000040000fa
:102fc0000000fa00c5ff070006000700f2fd070039
:042fd000feff3700c9
:020000040000fa
:102fd4000000fa000000fe000080fa000000060075
:020000040000fa
:102fe4000000fa00d5ff07000080fa000000060088
:020000040000fa
:0c2ff4000000fa000080fa000000060057
:020000040000fa
:020000040002f8
:04be0000ffffff0041
:020000040000fa
:020000040002f8
:04be2000ffffff0021
:020000040000fa
:020000040002f8
:04be300078ffff0098
:020000040000fa
:020000040002f8
:04be380097ffff0071
:020000040000fa
:020000040002f8
:04be40009fffff0061
:020000040000fa
:020000040002f8
:04be4800ffffff00f9
:020000040000fa
:020000040002f8
:04be5000deffff0012
:020000040000fa
:020000040002f8
:04be5800ffffff00e9
:00000001FF
