:100000002423040000000000042200000822000055
:100010000C22000010220000142200000022000028
:1000200018220000002200001C22000020220000F4
:1000300024220000CC210000282200002C220000F5
:100040003022000034220000382200003C22000050
:100050004022000044220000482200004C22000000
:100060005022000054220000582200005C220000B0
:1000700060220000642200006822000000220000CC
:1000800000220000002200006C220000702200000C
:100090000022000000220000002200007422000064
:1000A000782200007C2200008022000084220000D0
:1000B0000022000000220000882200008C220000A4
:1000C0000022000000220000002200009022000018
:1000D00094220000982200009C220000A022000030
:1000E000A42200000022000000220000A82200003C
:1000F000AC2200000022000000220000B02200001C
:10010000B4220000002200000022000000220000B3
:10011000B8220000BC220000C0220000C42200005F
:10012000C8220000CC220000D0220000D42200000F
:10013000D8220000DC220000002200000022000083
:100140000022000000220000E02200000022000047
:10015000002200000022000000220000E422000033
:100160000022000000220000002200000022000007
:100170000022000000220000E8220000EC22000023
:1001800000220000002200000022000000220000E7
:10019000F0220000F42200000022000000220000F3
:1001A000F8220000FC2200000023000004230000CD
:1001B00000220000002200000022000008230000AE
:1001C0000C2300000022000000220000002200009A
:1001D0001023000000220000142300001823000058
:1001E0001C2300000022000000220000002200006A
:1001F0000022000000220000002200002023000056
:10400000A7E6000063700000002000000000000030
:10401000FE570000010000002423040000000000FF
:10402000000000000200000000000000020000008C
:10403000020000000400000000000000000000007A
:10404000000000000000FA009621EF0080D023005D
:10405000E00C880000022800000D8800004080006D
:104060000000E00002003A00601522002400070072
:1040700088E0A90098E0A800408220008040EB0082
:10408000014878000080FA00000006000200FA00F3
:10409000000F78009E007800E10C8800408220002C
:1040A0008040EB00014878000080FA000000060024
:1040B0000000FA00E00C80000080FA00000006001A
:1040C0000200FA00000F78009E007800B10C880012
:1040D000408220008040EB00014878000080FA0018
:1040E000000006000000FA00B00C80000080FA001A
:1040F000000006000000FA000080FA000000060040
:104100000200FA00000F780098E0A9009E007800F5
:104110000140880098E0A8000080FA000000060036
:104120000000FA00408220008040EB000148780047
:1041300098E0A800A1E1A8000080FA0000000600B5
:104140000000FA00A1E1A90098E0A9000080FA00AF
:10415000000006000200FA0040822000104F7800A4
:104160001E4078000004E00003003200408220007E
:104170008040EB00014878001E4078000080FA0083
:10418000000006000000FA00508220001040780075
:104190000080FB000080FA00000006000000FA002A
:1041A000508220008040EB00014878000080FA0037
:1041B000000006000000FA0000002300100888003C
:1041C0000621EF006821EF006A21EF000821EF00CF
:1041D00000702000500888000C21EF000E21EF0035
:1041E0007821EF007A21EF007C21EF007E21EF00A3
:1041F0008021EF008221EF008421EF008621EF0073
:104200000001EB0080072000A1092000131020000E
:104210008049780081497800824978000001EB00EC
:104220006004200071052000031020008049780000
:1042300081497800824978000080FA000000060079
:104240000000FA006626EF007A26EF008E26EF00C7
:1042500070F92700103388000080EB00B03388002D
:10426000F03D2000503488007426EF008826EF00CF
:104270009C26EF007226EF008626EF009A26EF00BC
:104280006826EF007C26EF009026EF0070002000EB
:1042900050338800F0202F00F0338800F000200019
:1042A000903488000080FA00000006000000FA0048
:1042B000703480004500DE00614060000004A20010
:1042C000614060000080FB00610060004500DD008F
:1042D000713480000150A10001007000703488002A
:1042E0000080FA00000006000000FA00230007002A
:1042F000FFFF3700240800000200000080000000DB
:104300000008000002000000800000000408000017
:1043100020000000800000000208000002000000F1
:1043200082000000FFFF0000000000000200FA0011
:10433000000F78009E00780011408800FFFF3700D2
:104340000000FA004080200080077800C081200033
:10435000000188000080FA00000006000000FA005A
:1043600051058000F0FF28000080600000C0A00020
:10437000500588000080FA00000006000000FA00E6
:10438000AFFF07008BFF0700F4FF07002DFF0700BA
:0C4390000080FA0000000600FFFF37006C
:1044000004250400000000006224040000000000F5
:10441000A424040000000000E424040000000000C4
:104420008224040000000000C424040000000000F6
:104430000022040000000000002204000000000030
:104440000022040000000000002204000000000020
:104450000022040000000000002204000000000010
:1044600000220400000000002C24040000000000D2
:1044700000220400000000000022040000000000F0
:1044800000220400000000000022040000000000E0
:1044900000220400000000000022040000000000D0
:1044A00000220400000000000022040000000000C0
:1044B00000220400000000000022040000000000B0
:1044C00000220400000000000022040000000000A0
:1044D0000022040000000000002204000000000090
:1044E0000022040000000000002204000000000080
:1044F0000022040000000000002204000000000070
:10450000002204000000000000220400000000005F
:10451000002204000000000000220400000000004F
:10452000002204000000000000220400000000003F
:10453000002204000000000000220400000000002F
:10454000002204000000000000220400000000001F
:10455000002204000000000000220400000000000F
:1045600000220400000000000022040000000000FF
:1045700000220400000000000022040000000000EF
:1045800000220400000000000022040000000000DF
:1045900000220400000000000022040000000000CF
:1045A00000220400000000000022040000000000BF
:1045B00000220400000000000022040000000000AF
:1045C000002204000000000000220400000000009F
:1045D000002204000000000000220400000000008F
:1045E000002204000000000000220400000000007F
:1045F000002204000000000000220400000000006F
:10460000002204000000000000220400000000005E
:10461000002204000000000000220400000000004E
:10462000002204000000000000220400000000003E
:10463000002204000000000000220400000000002E
:1046400000220400000000006F8220000E7F240082
:104650000E01880000000000000020000000E000C3
:104660000200320000012000200288001400070030
:10467000E70007000000E00003003A00A017220056
:10468000010020000200370000002000010020008F
:10469000810F7000010032001400070000002000AC
:1046A0000000E000020032000000020000000000F4
:1046B00074210200000000000040DA000000FE004B
:1046C0004440A900200020000000E0000300320068
:1046D00010002000900188004440A800000006005F
:1046E0008A1F78008B1F780000000600A102880056
:1046F000800478000000EB001F003700E2844400D3
:1047000054A0B4009905BA00E284440054A0B40057
:104710009906BA00E284440054A0B4000006EB00FD
:10472000476FDE00FD07B200AE018800636CE10058
:1047300003003A00EAFF07000000EB000E0037001C
:10474000606CE10008003A00004DEB000A05E8004B
:10475000020039003420EC000AF0A0008B05E900CB
:10476000F9FF3E00040037006168E10001003200FB
:104770000086EB000B00070019C7BA001905BA0044
:104780000E04E00003003A000A00E000DBFF3A00FC
:1047900000000600FE07B200AE0288008A0478001E
:1047A000F5FF37000CD0A300E20F4D001C003900CC
:1047B00089027800354DBA000A05E8000200390088
:1047C0003420EC000AF0A0008B05E9000F00320055
:1047D000254DBA000A05E800020039003420EC003B
:1047E0000AF0A0008B05E900080032000C00E00090
:1047F0000600320015CDBA000A05E80002003900B3
:104800003420EC000AF0A0008B05E9008984E80060
:1048100054A0B4000B00E000E2FF3A0000000600E4
:104820009902BA00055D78008B05E900F7FF3200B8
:10483000C82ADE00055D78008B05E900F3FF320031
:104840000C00E000F1FF320019DDBA00EEFF370086
:1048500056210400000000003600F800809FBE00D2
:10486000829FBE00849FBE00869FBE000000FA00AB
:10487000004080000000E0000200320000408000A4
:104880000000010050822000104078008040E800C5
:1048900050822000014878004082200011C0B300FF
:1048A0000148780088E0A9000080FA004F03BE00AC
:1048B0004F02BE004F01BE004F00BE003600F9009F
:1048C000004006003600F800809FBE00829FBE00B8
:1048D000849FBE00869FBE000000FA008020A900D1
:1048E0000000EB0091FE07000080FA004F03BE00BD
:1048F0004F02BE004F01BE004F00BE003600F9005F
:10490000004006003600F800809FBE00829FBE0077
:10491000849FBE00869FBE000000FA0088FE07004C
:104920008040A9001000200080FE07000080FA00EF
:104930004F03BE004F02BE004F01BE004F00BE003D
:104940003600F900004006003600F800809FBE00E7
:10495000829FBE00849FBE00869FBE000000FA00BA
:104960008060A9002000200070FE07000080FA008F
:104970004F03BE004F02BE004F01BE004F00BE00FD
:104980003600F900004006003600F800809FBE00A7
:10499000829FBE00849FBE00869FBE000000FA007A
:1049A0008080A9003000200060FE07000080FA002F
:1049B0004F03BE004F02BE004F01BE004F00BE00BD
:1049C0003600F900004006003600F800809FBE0067
:1049D000829FBE00849FBE00869FBE000000FA003A
:1049E0008600A9007000200050FE07000080FA0039
:1049F0004F03BE004F02BE004F01BE004F00BE007D
:104A00003600F900004006000040DA000000FE0019
:044A1000000005009D
:020000040002F8
:04BE0000FFFFFF0041
:04BE2000FFFFFF0021
:04BE300078FFFF0098
:04BE380097FFFF0071
:04BE40009FFFFF0061
:04BE4800FFFFFF00F9
:04BE5000DEFFFF0012
:04BE5800FFFFFF00E9
:00000001FF
